:100000000C9497040C94BF040C94BF040C94BF048C
:100010000C94BF040C94BF040C94BF040C94BF0454
:100020000C94BF040C94BF040C94BF040C94BF0444
:100030000C94BF040C94BF040C94BF040C94BF0434
:100040000C94BD190C94BF040C94B9170C94EB17C5
:100050000C94BF040C94BF040C94BF040C94BF0414
:100060000C94BF040C94BF044E65787400546F70F8
:1000700000436F756E7465720044656C657465410C
:100080006C6C0044656C65746500557064617465E2
:100090000053656C65637400496E73657274004348
:1000A0006C65616E00496E736572744D6178696D3F
:1000B000756D002C206C696E652000292C20666906
:1000C0006C6520003D002028002920003D003A20DA
:1000D00028006661696C6564007061737365640013
:1000E000417373657274696F6E20002E2E2F5465F4
:1000F0007374585461626C652E63707000626C6931
:100100006E6B696E675F4C4544732E53656C656317
:100110007428292D3E70696E003D3D0069642B2BCB
:10012000002E2E2F54657374585461626C652E63D3
:10013000707000626C696E6B696E675F4C454473EA
:100140002E546F702829003D3D0074727565002E95
:100150002E2F54657374585461626C652E637070F1
:1001600000626C696E6B696E675F4C4544732E5418
:100170006F702829003D3D0066616C7365002E2E6E
:100180002F54657374585461626C652E63707000EF
:10019000626C696E6B696E675F4C4544732E446593
:1001A0006C6574652829003D3D0074727565002EEC
:1001B0002E2F54657374585461626C652E63707091
:1001C00000626C696E6B696E675F4C4544732E53B9
:1001D000656C65637428292D3E70696E003D3D0095
:1001E0003838002E2E2F54657374585461626C6534
:1001F0002E63707000626C696E6B696E675F4C4550
:1002000044732E546F702829003D3D00747275654B
:10021000002E2E2F54657374585461626C652E63E2
:10022000707000626C696E6B696E675F4C454473F9
:100230002E496E73657274284C454429003D3D007B
:1002400074727565002E2E2F546573745854616254
:100250006C652E63707000626C696E6B696E675FAF
:100260004C4544732E546F702829003D3D00666153
:100270006C7365002E2E2F54657374585461626C34
:10028000652E63707000626C696E6B696E675F4C9F
:100290004544732E53656C65637428292D3E70693F
:1002A0006E003D3D0031002E2E2F5465737458545E
:1002B00061626C652E63707000626C696E6B696E52
:1002C000675F4C4544732E546F702829003D3D00F4
:1002D00074727565002E2E2F5465737458546162C4
:1002E0006C652E63707000626C696E6B696E675F1F
:1002F0004C4544732E44656C6574652829003D3D6A
:100300000074727565002E2E2F54657374585461F5
:10031000626C652E63707000626C696E6B696E67EB
:100320005F4C4544732E53656C65637428292D3EDC
:1003300070696E003D3D0030002E2E2F54657374A1
:10034000585461626C652E63707000626C696E6BEC
:10035000696E675F4C4544732E546F702829003DC9
:100360003D0074727565002E2E2F546573745854B9
:1003700061626C652E63707000626C696E6B696E91
:10038000675F4C4544732E546F702829003D3D0033
:1003900066616C7365002E2E2F546573745854611A
:1003A000626C652E63707000626C696E6B696E675B
:1003B0005F4C4544732E436F756E74657228290037
:1003C0003D3D003130002E2E2F546573745854611A
:1003D000626C652E63707000626C696E6B696E672B
:1003E0005F4C4544732E436F756E74657228290007
:1003F0003D3D0030002E2E2F5465737458546162B9
:100400006C652E63707000626C696E6B696E675FFD
:100410004C4544732E436F756E7465722829003DF8
:100420003D0030002E2E2F54657374585461626C59
:10043000652E63707000626C696E6B696E675F4CED
:100440004544732E44656C6574652829003D3D0064
:1004500074727565002E2E2F546573745854616242
:100460006C652E63707000626C696E6B696E675F9D
:100470004C4544732E436F756E7465722829003D98
:100480003D003130002E2E2F546573745854616234
:100490006C652E63707000626C696E6B696E675F6D
:1004A0004C4544732E436F756E7465722829003D68
:1004B0003D0030002E2E2F54657374585461626CC9
:1004C000652E63707000626C696E6B696E675F4C5D
:1004D0004544732E53656C65637428293D3D5F5F09
:1004E0006E756C6C003D3D0074727565002E2E2F8C
:1004F00054657374585461626C652E637070006249
:100500006C696E6B696E675F4C4544732E44656C15
:100510006574652829003D3D0074727565002E2EB6
:100520002F54657374585461626C652E637070004B
:10053000626C696E6B696E675F4C4544732E5365E0
:100540006C65637428293D3D5F5F6E756C6C003D82
:100550003D0066616C7365002E2E2F5465737458D0
:100560005461626C652E63707000626C696E6B69B9
:100570006E675F4C4544732E496E73657274284CE8
:10058000454429003D3D0074727565002E2E2F54A0
:10059000657374585461626C652E63707000626C90
:1005A000696E6B696E675F4C4544732E53656C656D
:1005B000637428293D3D5F5F6E756C6C003D3D00A6
:1005C00074727565002E2E2F5465737458546162D1
:1005D0006C652E637070004C45442E70696E003D52
:1005E0003D003838002E2E2F5465737458546162C4
:1005F0006C652E63707000626C696E6B696E675F0C
:100600004C4544732E557064617465284C454429EB
:10061000003D3D0074727565002E2E2F5465737475
:10062000585461626C652E637070004C45442E70A6
:10063000696E003D3D0031002E2E2F5465737458B5
:100640005461626C652E63707000626C696E6B69D8
:100650006E675F4C4544732E496E73657274284C07
:10066000454429003D3D0074727565002E2E2F54BF
:10067000657374585461626C652E637070004C45EC
:10068000442E70696E003D3D003838002E2E2F54E8
:10069000657374585461626C652E63707000626C8F
:1006A000696E6B696E675F4C4544732E496E736566
:1006B0007274284C454429003D3D007472756500F4
:1006C0002E2E2F54657374585461626C652E6370BE
:1006D0007000626C696E6B696E675F4C4544732E87
:1006E000436F756E7465722829003D3D0031002E00
:1006F0002E2F54657374585461626C652E6370704C
:1007000000626C696E6B696E675F4C4544732E497D
:100710006E73657274284C454429003D3D00747227
:100720007565002C206C696E652000292C20666997
:100730006C6520003D002028002920003D003A2063
:1007400028006661696C656400706173736564009C
:10075000417373657274696F6E20002E2E2F54657D
:100760007374585461626C652E63707000626C69BA
:100770006E6B696E675F4C4544732E436F756E7484
:1007800065722829003D3D0030002E2E2F546573E0
:1007900074585461626C652E63707000626C696E8F
:1007A0006B696E675F4C4544732E436F756E74655D
:1007B000722829003D3D003130002E2E2F546573E4
:1007C00074585461626C652E63707000626C696E5F
:1007D0006B696E675F4C4544732E496E7365727426
:1007E000284C454429003D3D0074727565002E2E4D
:1007F0002F54657374585461626C652E6370700079
:10080000626C696E6B696E675F4C4544732E496E0E
:1008100073657274284C454429003D3D0066616C47
:100820007365002E2E2F54657374585461626C6585
:100830002E63707000626C696E6B696E675F4C4509
:1008400044732E496E73657274284C454429003DEB
:100850003D0074727565002C206C696E652000295E
:100860002C2066696C6520003D00202800292000AE
:100870003D003A2028006661696C65640070617310
:1008800073656400417373657274696F6E20002E26
:100890002E2F54657374585461626C652E637070AA
:1008A00000626C696E6B696E675F4C4544732E49DC
:1008B0006E73657274284C454429003D3D00747286
:1008C00075650020746573742873292E0020736B7E
:1008D00069707065642C206F7574206F662000202D
:1008E0006661696C65642C20616E64200020706113
:1008F000737365642C2000546573742073756D6D7B
:100900006172793A2000206661696C65642E00206E
:100910007061737365642E0020736B697070656419
:100920002E005465737420008911111826121124A9
:100930001FBECFEFD8E0DEBFCDBF12E0A0E0B1E038
:10094000E2E2F8E302C005900D92AC3BB107D9F7A3
:1009500024E0ACEBB2E001C01D92AA30B207E1F78F
:1009600019E0CCE2D9E004C02297FE010E94B21A3D
:10097000C832D107C9F70E94DD050C94041C0C9401
:100980000000FC0181E02081FB019081291380E0BF
:100990000895FC0181E040815181FB01208131817A
:1009A0004217530709F080E00895FC0181E020819F
:1009B000FB019081291380E0089523E932E0FC01D6
:1009C000318320830C94841523E732E0FC013183CA
:1009D00020830C94DD0425E632E0FC013183208382
:1009E0000C94DD0427E532E0FC01318320830C9474
:1009F000DD0429E432E0FC01318320830C94DD0422
:100A00002BE332E0FC01318320830C94DD042DE2E2
:100A100032E0FC01318320830C94DD042FE132E0CD
:100A2000FC01318320830C94DD0421E132E0FC01E0
:100A3000318320830C94DD0423E032E0FC01318318
:100A400020830C94DD0425EF31E0FC013183208309
:100A50000C94DD04CF93DF93EC010E94DD04CE0102
:100A6000DF91CF910C94BB19CF93DF93EC010E94DF
:100A7000E404CE01DF91CF910C94BB19CF93DF93A7
:100A8000EC010E94EB04CE01DF91CF910C94BB19D5
:100A9000CF93DF93EC010E94F204CE01DF91CF915E
:100AA0000C94BB19CF93DF93EC010E94F904CE01A3
:100AB000DF91CF910C94BB19CF93DF93EC010E948F
:100AC0000005CE01DF91CF910C94BB19CF93DF933A
:100AD000EC010E940705CE01DF91CF910C94BB1968
:100AE000CF93DF93EC010E940E05CE01DF91CF91F1
:100AF0000C94BB19CF93DF93EC010E941505CE0136
:100B0000DF91CF910C94BB19CF93DF93EC010E943E
:100B10001C05CE01DF91CF910C94BB19CF93DF93CD
:100B2000EC010E942305CE01DF91CF910C94BB19FB
:100B30008CEB92E00E94E40488EC92E00E94EB04CB
:100B400084ED92E00E94F20480EE92E00E94F904AB
:100B50008CEE92E00E94000588EF92E00E9407056B
:100B600084E093E00E940E0580E193E00E94150569
:100B70008CE193E00E941C0588E293E00E9423052B
:100B800080913E0390913F039093410380934003F3
:100B90008091400390914103009771F0FC012781FF
:100BA000308530934303209342030E94BB19809108
:100BB000420390914303E8CF08950E94521A26E021
:100BC00040E052EC61E070E080E693E00E9457174D
:100BD00062E370E080E090E00E942A1A21E0209316
:100BE0004F038AE090E0A0E0B0E080935003909340
:100BF0005103A0935203B093530320934E036AE032
:100C000071E080E693E00E94E01810920801809164
:100C10003E0390913F03892B09F081C089E090E069
:100C20000E94B91990933F0380933E03009709F403
:100C300076C09093410380934003C0E0D0E089E008
:100C400090E00E94B9199093430380934203E0918E
:100C50004003F091410390878783909341038093F1
:100C600040032196009721F0CE31D10541F703C012
:100C70006E9709F054C0FC01108617828EE190E057
:100C800090933D0380933C0387E090E00E94B91964
:100C900090933703809336038DEE91E00E945116B6
:100CA00084E291E00E9431168AE291E00E943116BE
:100CB00081E391E00E9431168FE391E00E943116AA
:100CC00086E491E00E9431168DE491E00E94311695
:100CD00084E591E00E9431168EE591E00E94311684
:100CE00086E691E00E9431168AE691E00E94311674
:100CF0008FE691E00E9431168BE791E00E94311659
:100D000087E891E00E94311683E991E00E94311654
:100D100088EA91E00E9431160E94EA15FDCF6FEB40
:100D200071E080E693E00E94E01864E670E080E005
:100D300090E00E942A1A80E090E00E94041CFC01CE
:100D4000A285B385109739F4158614861786168602
:100D5000178216820895B587A48716961C92169757
:100D600017960D90BC91A02D1097B9F7EDCFCF93AA
:100D7000DF9300D000D000D0CDB7DEB729833A830F
:100D80004B835C836D837E83DC011A962D913C91AD
:100D90001B971D963C932E931C97232B09F5FC0162
:100DA000A485B58521E016962C93169726E0FE01C2
:100DB000319601900D922A95E1F7DC0116962D915E
:100DC0003C9117972F5F3F4F17963C932E931697A2
:100DD00081E011C04681442311F3FC01358724874B
:100DE000DC011C96ED91FC911D9727813085211522
:100DF000310581F780E026960FB6F894DEBF0FBE6E
:100E0000CDBFDF91CF9108954F925F926F927F9205
:100E10008F929F92AF92BF92CF92DF92EF92FF920A
:100E20000F931F93CF93DF934C013B012A01E901FC
:100E3000B501C901F7010995F82E8111ABC0809168
:100E40005C0390915D03009711F00E94E61580917C
:100E5000090184FFB0C08091080184FF0DC064E8DF
:100E600078E080910601909107010E949218FF207E
:100E700071F06DE778E00DC0E0915C03F0915D03E7
:100E8000309709F498C0838584FDE9CF94C066E764
:100E900078E080910601909107010E94921862E724
:100EA00078E080910601909107010E949218B201AA
:100EB00080910601909107010E94921860E778E006
:100EC00080910601909107010E949218688170E05C
:100ED0004AE050E080910601909107010E94951927
:100EE0006DE678E080910601909107010E949218CA
:100EF000B80180910601909107010E9492186AE65C
:100F000078E080910601909107010E949218B60145
:100F100080910601909107010E94921868E678E09E
:100F200080910601909107010E949218F50160815D
:100F300070E04AE050E080910601909107010E9424
:100F400095196FE578E080910601909107010E9464
:100F50009218B40180910601909107010E949218A5
:100F600067E578E080910601909107010E94921850
:100F70004AE050E0B30180910601909107010E9480
:100F8000B1196FEE71E080910601909107010E9406
:100F9000E01811C08091090185FF0DC08091080102
:100FA00085FD5DCFE0915C03F0915D03309719F012
:100FB000838585FD54CF8F2DDF91CF911F910F91A8
:100FC000FF90EF90DF90CF90BF90AF909F908F9069
:100FD0007F906F905F904F9008958F929F92AF9205
:100FE000BF92CF92DF92EF92FF920F931F93CF9316
:100FF000DF9300D0CDB7DEB784E393E00E949F0675
:10100000912C8824839490924E038982292D3091CB
:101010004F034091500350915103609152037091DE
:10102000530384E393E00E94B7068A83CE010196BE
:101030005C018EEBC82E88E0D82E91ECE92E94E06E
:10104000F92E0BEB18E09E012E5F3F4F41EA58E06E
:1010500067E470E08FE898E00E940407882321F09D
:1010600093949AE09912CFCF0F900F90DF91CF9188
:101070001F910F91FF90EF90DF90CF90BF90AF90B6
:101080009F908F9008958F929F92AF92BF92CF9230
:10109000DF92EF92FF920F931F93CF93DF9300D0D5
:1010A000CDB7DEB784E393E00E949F06912C88249D
:1010B000839490924E038982292D30914F03409161
:1010C000500350915103609152037091530384E394
:1010D00093E00E94B7068A83CE0101965C0132E557
:1010E000C32E38E0D32E41ECE42E44E0F42E0FE47E
:1010F00018E09E012E5F3F4F45E358E064E570E045
:1011000083E298E00E940407882351F193949EE1C2
:101110009912CFCF1A8220914E0330914F03409104
:10112000500350915103609152037091530384E333
:1011300093E00E94B7068983CE0102965C012DE1FF
:10114000C22E28E0D22E0AE118E09E012F5F3F4F09
:1011500040E058E067E570E08EEE97E00E940407FB
:101160000F900F90DF91CF911F910F91FF90EF9013
:10117000DF90CF90BF90AF909F908F9008954F9247
:101180005F926F927F928F929F92AF92BF92CF9217
:10119000DF92EF92FF920F931F93CF93DF934C0157
:1011A0003B012A01E901B501C901F7010995F82EB2
:1011B0008111ABC080915C0390915D03009711F0A9
:1011C0000E94E6158091090184FFB0C0809108015A
:1011D00084FF0DC060E577E08091060190910701E2
:1011E0000E949218FF2071F069E477E00DC0E09151
:1011F0005C03F0915D03309709F498C0838584FD0A
:10120000E9CF94C062E477E08091060190910701F4
:101210000E9492186EE377E0809106019091070199
:101220000E949218B20180910601909107010E94DC
:1012300092186CE377E080910601909107010E947B
:101240009218688179814AE050E08091060190917E
:1012500007010E94951969E377E08091060190915A
:1012600007010E949218B801809106019091070130
:101270000E94921866E377E0809106019091070141
:101280000E949218B60180910601909107010E9478
:10129000921864E377E080910601909107010E9423
:1012A0009218F501608171814AE050E08091060159
:1012B000909107010E9495196BE277E080910601F9
:1012C000909107010E949218B401809106019091BB
:1012D00007010E94921863E277E0809106019091E5
:1012E00007010E9492184AE050E0B3018091060184
:1012F000909107010E94B1196FEE71E08091060193
:10130000909107010E94E01811C08091090185FFAA
:101310000DC08091080185FD5DCFE0915C03F091E7
:101320005D03309719F0838585FD54CF8F2DDF91B4
:10133000CF911F910F91FF90EF90DF90CF90BF90D2
:10134000AF909F908F907F906F905F904F90089597
:101350007F928F929F92AF92BF92CF92DF92EF9245
:10136000FF920F931F93CF93DF9300D000D0CDB7A0
:10137000DEB784E393E00E949F06AAE08A2E912CB8
:1013800077247394798220914E0330914F034091DA
:10139000500350915103609152037091530384E3C1
:1013A00093E00E94B7068B83CE0101965C01E9EEC3
:1013B000CE2EE7E0DE2EF1ECEF2EF4E0FF2E06EE6F
:1013C00017E09E012D5F3F4F4CEC57E06FE570E05A
:1013D0008AEB97E00E940407882309F445C091E056
:1013E000891A910879F68AE090E09C838B8380913A
:1013F0003A0390913B039A838983CE0103965C0163
:1014000067EBC62E67E0D62E79ECE72E74E0F72E58
:1014100004EB17E09E012F5F3F4F4CE957E061E678
:1014200070E08AE897E00E94BF088823E9F084E32F
:1014300093E00E949F061C821B8280913A03909148
:101440003B039A83898358E8C52E57E0D52E05E8DB
:1014500017E09E012F5F3F4F4DE657E065E670E0D5
:101460008BE597E00E94BF080F900F900F900F90B0
:10147000DF91CF911F910F91FF90EF90DF90CF9070
:10148000BF90AF909F908F907F900895AF92BF9242
:10149000CF92DF92EF92FF920F931F93CF93DF9340
:1014A00000D000D0CDB7DEB784E393E00E949F0662
:1014B00081E0898320914E0330914F034091500386
:1014C00050915103609152037091530384E393E070
:1014D0000E94B7068B83CE0101965C010EE1C02EFF
:1014E00007E0D02E81ECE82E84E0F82E0BE117E027
:1014F0009E012D5F3F4F41E057E06CE670E08FEEBC
:1015000096E00E940407882311F181E090E09C831B
:101510008B8380913A0390913B039A838983CE0118
:1015200003965C01BDEECB2EB6E0DB2E19ECE12E6E
:1015300014E0F12E0AEE16E09E012F5F3F4F42EDC0
:1015400056E06DE670E080EC96E00E94BF080F90D8
:101550000F900F900F90DF91CF911F910F91FF90FF
:10156000EF90DF90CF90BF90AF900895AF92BF9271
:10157000CF92DF92EF92FF920F931F93CF93DF935F
:1015800000D000D0CDB7DEB784E393E00E949F0681
:1015900088E580934E0381E0898328E530914F03ED
:1015A0004091500350915103609152037091530345
:1015B00084E393E00E94B7068B83CE0101965C0121
:1015C0003BEBC32E36E0D32E41ECE42E44E0F42E68
:1015D00008EB16E09E012D5F3F4F4EE956E065E7B0
:1015E00070E08CE896E00E9404078823B9F110921D
:1015F0004E03A0914003B091410316968C9116972B
:10160000882311F0FD0102C0E0E0F0E086E0AEE4E6
:10161000B3E001900D928A95E1F788E590E09C8314
:101620008B8380914E0390E09A838983CE01039649
:101630005C0199E8C92E96E0D92E29ECE22E24E02F
:10164000F22E06E816E09E012F5F3F4F4EE756E070
:1016500069E770E08CE696E00E94BF080F900F905B
:101660000F900F90DF91CF911F910F91FF90EF900E
:10167000DF90CF90BF90AF900895AF92BF92CF927E
:10168000DF92EF92FF920F931F93CF93DF93CDB72B
:10169000DEB72A970FB6F894DEBF0FBECDBF11E0BC
:1016A00010934E0384E393E00E949F0619832091D8
:1016B0004E0330914F03409150035091510360917C
:1016C00052037091530384E393E00E94B7068F8323
:1016D000CE0101965C01B7E6CB2EB6E0DB2E11EC15
:1016E000E12E14E0F12E04E616E09E01295F3F4F43
:1016F0004AE456E062E870E088E396E00E9404075E
:10170000882309F4A9C0A0914003B0914103169623
:101710008C911697882311F0FD0102C0E0E0F0E003
:1017200086E0AEE4B3E001900D928A95E1F781E0A6
:1017300090E098878F8380914E0390E09A8389830D
:10174000CE0107965C01F6E3CF2EF6E0DF2EA9EC82
:10175000EA2EA4E0FA2E03E316E09E012F5F3F4F2E
:101760004BE256E065E870E089E196E00E94BF0830
:10177000882309F471C098E590934E0391E099870E
:10178000209140033091410396E0EEE4F3E0DE0166
:10179000119601900D929A95E1F72115310549F0C6
:1017A00096E0FE013196D90101900D929A95E1F7EC
:1017B00001C080E08F83CE0109965C0174E1C72EE1
:1017C00076E0D72EE1ECEE2EE4E0FE2E01E116E00D
:1017D0009E01295F3F4F47EF55E068E870E085EED6
:1017E00095E00E9404078823B9F110924E03A0915E
:1017F0004003B091410316968C911697882311F0FF
:10180000FD0102C0E0E0F0E086E0AEE4B3E001906C
:101810000D928A95E1F788E590E09A878987809113
:101820004E0390E098878F83CE0109965C0152EEBB
:10183000C52E55E0D52E69ECE62E64E0F62E0FEDB0
:1018400015E09E01295F3F4F47ED55E06CE870E0E1
:1018500085EC95E00E94BF082A960FB6F894DEBF8B
:101860000FBECDBFDF91CF911F910F91FF90EF90F1
:10187000DF90CF90BF90AF900895AF92BF92CF927C
:10188000DF92EF92FF920F931F93CF93DF9300D0DD
:1018900000D0CDB7DEB784E393E00E949F061A82A2
:1018A000198280913A0390913B039C838B83CE01F4
:1018B00001965C0183EFC82E83E0D82E99ECE92EC7
:1018C00094E0F92E00EF13E09E012D5F3F4F48EDAD
:1018D00053E063EB70E086EC93E00E94BF0888233E
:1018E00001F10E94ED078AE090E09C838B83809158
:1018F0003A0390913B039A838983CE0103965C015E
:1019000003ECC02E03E0D02E00EC13E09E012F5F0D
:101910003F4F48EA53E067EB70E086E993E00E94AE
:10192000BF080F900F900F900F90DF91CF911F91F4
:101930000F91FF90EF90DF90CF90BF90AF90089500
:10194000FC01A485B585109749F016961C928681F6
:10195000978101979783868381E0089580E00895B9
:101960009F92AF92BF92CF92DF92EF92FF920F932E
:101970001F93CF93DF9300D0CDB7DEB784E393E01E
:101980000E949F0681E08983E0914003F09141032A
:101990002681222311F0CF0102C080E090E021E0F7
:1019A000892B09F020E02A83CE0101965C01E0EC4E
:1019B000CE2EE5E0DE2EF1ECEF2EF4E0FF2E0DEB67
:1019C00015E09E012E5F3F4F4EE955E062E970E061
:1019D0008CE895E00E940407882309F49AC081E00E
:1019E0008A8320914E0330914F03409150035091D0
:1019F0005103609152037091530384E393E00E947A
:101A0000B7068983CE0102965C0177E8C72E75E0A0
:101A1000D72E04E815E09E012F5F3F4F4AE655E0C0
:101A200064E970E088E595E00E940407882309F4E2
:101A300070C01A82E0914003F09141032681222375
:101A400011F0CF0102C080E090E021E0892B09F085
:101A500020E02983CE0102965C0152E5C52E55E0B7
:101A6000D52E61ECE62E64E0F62E0FE415E09E0123
:101A70002F5F3F4F40E355E065E970E08EE195E070
:101A80000E940407882309F444C0992493949A82FD
:101A900084E393E00E94A00C898349E1C42E45E0D1
:101AA000D42E06E115E09E012F5F3F4F4FEF54E02B
:101AB00067E970E08DEE94E00E940407882349F105
:101AC0009A82E0914003F09141032681222311F094
:101AD000CF0102C080E090E021E0892B09F020E0F6
:101AE0002983CE0102965C0128EEC22E24E0D22E7C
:101AF00031ECE32E34E0F32E05EE14E09E012F5F6F
:101B00003F4F46EC54E068E970E084EB94E00E94BB
:101B100004070F900F90DF91CF911F910F91FF90CD
:101B2000EF90DF90CF90BF90AF909F900895CF93AC
:101B3000DF93EC018A859B85892BB1F0EC85FD85CF
:101B4000309791F00780F085E02DFD87EC87309786
:101B500031F08681811103C0CE010E94970D81E092
:101B60002C853D85232B09F480E0DF91CF910895EA
:101B7000DC011A96ED91FC911B97309749F01D9668
:101B8000FC93EE931C972681211103C00C94970DB2
:101B900020E0822F08959F92AF92BF92CF92DF9262
:101BA000EF92FF920F931F93CF93DF9300D000D05B
:101BB000CDB7DEB784E393E00E949F06198284E3E9
:101BC00093E00E94B80D8B83CE0101965C0100E981
:101BD000C02E03E0D02E81ECE82E84E0F82E0DE834
:101BE00013E09E012D5F3F4F49E753E060EC70E04A
:101BF00087E693E00E940407882309F476C10E94D7
:101C0000ED0781E08B8384E393E00E94B80D898324
:101C1000CE0103965C0112E6C12E13E0D12E0FE532
:101C200013E09E012F5F3F4F4BE453E064EC70E004
:101C300089E393E00E940407882309F456C11C82BB
:101C40001B82E0914003F09141038681811102C023
:101C5000E0E0F0E0808190E09A838983CE010396F2
:101C60005C01A7E3CA2EA3E0DA2EB9ECEB2EB4E0B8
:101C7000FB2E04E313E09E012F5F3F4F48E153E04A
:101C800065EC70E086E093E00E94BF08882309F4C9
:101C90002CC1992493949B8284E393E00E94A00C2E
:101CA0008983E1E0CE2EE3E0DE2EF1ECEF2EF4E0CE
:101CB000FF2E0EEF12E09E012F5F3F4F47EE52E0E6
:101CC00067EC70E085ED92E00E940407882309F438
:101CD0000CC19B8284E393E00E94B80D898370ED70
:101CE000C72E72E0D72E0DEC12E09E012F5F3F4F02
:101CF00049EB52E068EC70E087EA92E00E9404074A
:101D0000882309F4F2C081E090E09C838B83E0910A
:101D10004003F09141038681811102C0E0E0F0E0D0
:101D2000808190E09A838983CE0103965C0155EA15
:101D3000C52E52E0D52E69ECE62E64E0F62E02EABE
:101D400012E09E012F5F3F4F46E852E069EC70E0E1
:101D500084E792E00E94BF08882309F4C6C084E3A8
:101D600093E00E949F061B8284E393E00E94B80DDB
:101D700089833EE6C32E32E0D32E41ECE42E44E0CC
:101D8000F42E0BE612E09E012F5F3F4F47E552E035
:101D90006CEC70E085E492E00E940407882309F46B
:101DA000A4C088E580934E03992493949B8228E5F0
:101DB00030914F0340915003509151036091520371
:101DC0007091530384E393E00E94B706898320E473
:101DD000C22E22E0D22E0DE312E09E012F5F3F4F74
:101DE00043E252E06FEC70E081E192E00E94040770
:101DF000882309F47AC09B8284E393E00E94B80DA3
:101E000089839CE0C92E92E0D92E09E012E09E0160
:101E10002F5F3F4F45EF51E060ED70E083EE91E0C2
:101E20000E940407882309F460C088E590E09C8341
:101E30008B83E0914003F09141038681811102C0C0
:101E4000E0E0F0E0808190E09A838983CE01039600
:101E50005C0100EEC02E01E0D02E89ECE82E84E07B
:101E6000F82E0DED11E09E012F5F3F4F41EC51E048
:101E700061ED70E08FEA91E00E94BF088823A9F12C
:101E800081E08B8384E393E00E94A00C8983BAEA0B
:101E9000CB2EB1E0DB2E11ECE12E14E0F12E07EA9F
:101EA00011E09E012F5F3F4F40E951E063ED70E08C
:101EB0008EE791E00E9404078823B9F01B8284E337
:101EC00093E00E94B80D8983A8E7CA2EA1E0DA2E1C
:101ED00005E711E09E012F5F3F4F41E651E064EDC1
:101EE00070E08FE491E00E9404070F900F900F9034
:101EF0000F90DF91CF911F910F91FF90EF90DF90A6
:101F0000CF90BF90AF909F9008959F92AF92BF9255
:101F1000CF92DF92EF92FF920F931F93CF93DF93B5
:101F200000D000D0CDB7DEB784E393E00E949F06D7
:101F30001A82198280913A0390913B039C838B8390
:101F4000CE0101965C0162EBC62E64E0D62E79ECE0
:101F5000E72E74E0F72E0FEA14E09E012D5F3F4F4D
:101F600047E954E060EA70E085E894E00E94BF0829
:101F7000882309F469C00E94ED078AE090E09A8303
:101F8000898380913A0390913B039C838B8352E831
:101F9000C52E54E0D52E0FE714E09E012D5F3F4F74
:101FA00047E654E063EA70E085E594E00E94BF08EC
:101FB000882309F449C084E393E00E94B80D992472
:101FC00093949B8284E393E00E94A00C8983CE01CA
:101FD00003965C0130E5C32E34E0D32E41ECE42EB1
:101FE00044E0F42E0DE414E09E012F5F3F4F46E3E2
:101FF00054E068EA70E084E294E00E9404078823D9
:1020000019F184E393E00E94970D8111DACF1C82CD
:102010001B8280913A0390913B039A83898392E2D9
:10202000C92E94E0D92E29ECE22E24E0F22E0FE105
:1020300014E09E012F5F3F4F47E054E06BEA70E0F1
:1020400085EF93E00E94BF080F900F900F900F90C4
:10205000DF91CF911F910F91FF90EF90DF90CF9084
:10206000BF90AF909F9008954F925F926F927F9232
:102070008F929F92AF92BF92CF92DF92EF92FF9298
:102080000F931F93CF93DF932C014B013A01E9018A
:10209000B501C901F7010995F82E8111A9C08091F8
:1020A0005C0390915D03009711F00E94E61580910A
:1020B000090184FFAEC08091080184FF0DC060EE6D
:1020C00070E080910601909107010E949218FF2014
:1020D00071F069ED70E00DC0E0915C03F0915D037B
:1020E000309709F496C0838584FDE9CF92C062EDF4
:1020F00070E080910601909107010E9492186EECA9
:1021000070E080910601909107010E949218B3013E
:1021100080910601909107010E9492186CEC70E08A
:1021200080910601909107010E9492184AE050E0C8
:10213000688180910601909107010E94AA1969ECBB
:1021400070E080910601909107010E949218B801F9
:1021500080910601909107010E94921866EC70E050
:1021600080910601909107010E949218B60180911A
:102170000601909107010E94921864EC70E0809132
:102180000601909107010E9492184AE050E0F50183
:10219000608180910601909107010E94AA196BEB62
:1021A00070E080910601909107010E949218B2019F
:1021B00080910601909107010E94921863EB70E0F4
:1021C00080910601909107010E9492184AE050E028
:1021D000B40180910601909107010E94B1196FEE40
:1021E00071E080910601909107010E94E01811C0F2
:1021F0008091090185FF0DC08091080185FD5FCFA9
:10220000E0915C03F0915D03309719F0838585FDC3
:1022100056CF8F2DDF91CF911F910F91FF90EF90AF
:10222000DF90CF90BF90AF909F908F907F906F90F6
:102230005F904F9008959F92AF92BF92CF92DF929E
:10224000EF92FF920F931F93CF93DF9300D0CDB700
:10225000DEB70E94ED0781E0898384E393E00E946A
:10226000B80D8A83CE0101965C01AAE4CA2EA1E0D2
:10227000DA2EB1ECEB2EB4E0FB2E07E411E09E0168
:102280002E5F3F4F43E351E06EED70E081E291E05D
:102290000E940407882379F180E099249394980E92
:1022A0008983E0914003F09141038681882311F0F6
:1022B0009F0102C020E030E0CE0101965C01ECE11C
:1022C000CE2EE1E0DE2EF5EDEF2EF4E0FF2E09E15B
:1022D00011E04DEF50E062EE70E08BEE90E00E9476
:1022E0003410882341F084E393E00E94970D882303
:1022F00011F0892DD2CF0F900F90DF91CF911F91C8
:102300000F91FF90EF90DF90CF90BF90AF909F9094
:10231000089582E48093340385E48093350387E055
:1023200090E00E94B919909339038093380310927A
:102330004103109240031092430310924203109203
:102340003B0310923A0310923F0310923E038FEF2B
:102350009FEF909349038093480365EA70E088E219
:1023600093E00E94751685EF91E090932903809386
:1023700028036FE970E08CE193E00E94751683E01A
:1023800092E090931D0380931C0368E970E080E164
:1023900093E00E94751681E192E09093110380937F
:1023A000100361E970E084E093E00E9475168FE10C
:1023B00092E090930503809304036AE870E088EF4D
:1023C00092E00E9475168DE292E09093F90280935C
:1023D000F80263E870E08CEE92E00E9475168BE3E1
:1023E00092E09093ED028093EC0269E770E080EE5A
:1023F00092E00E94751689E492E09093E102809346
:10240000E00261E770E084ED92E00E94751687E5D6
:1024100092E09093D5028093D4026DE670E088EC50
:1024200092E00E94751685E692E09093C90280932F
:10243000C80268E670E08CEB92E00E94751683E7B4
:1024400092E09093BD028093BC0208950C9498058D
:102450000895CF93DF93EC01E881F9810084F18541
:10246000E02D09958C81813011F483E08C83DF911C
:10247000CF9108959B01FC016281738184819581D4
:1024800097FF03C0C9010C949218C9010C94B718A6
:102490000F931F93FB01BA01422FDC0112960D919D
:1024A0001D912D913C91159750E0600F711FCF0148
:1024B00037FF04C01F910F910C94E21B1F910F91E5
:1024C0000C94F41BFC0182819381A481B581B7FD3A
:1024D0000C94EB1BFC0101900020E9F731979F0160
:1024E000281B390BC9010895BF92CF92DF92EF925A
:1024F000FF920F931F93CF93DF93CDB7DEB728974B
:102500000FB6F894DEBF0FBECDBF7C016B0100E0BB
:1025100010E0802F8370B82E81F424E0A801BE0162
:102520006B5F7F4FC7010E94481224E0A801BE01E3
:102530006F5F7F4FC6010E9448122B2D30E0E5E00F
:10254000F0E0EC0FFD1FE20FF31F8081E1E0F0E00F
:10255000EC0FFD1FE20FF31F9081891738F09817D9
:1025600038F0882339F00F5F1F4FD3CF8FEF03C0B0
:1025700081E001C080E028960FB6F894DEBF0FBE60
:10258000CDBFDF91CF911F910F91FF90EF90DF9022
:10259000CF90BF9008952F923F924F925F926F928B
:1025A0007F928F929F92AF92BF92CF92DF92EF92E3
:1025B000FF920F931F93CF93DF93CDB7DEB763974F
:1025C0000FB6F894DEBF0FBECDBF2C015B016DB618
:1025D0007EB6788A6F86FB0101900020E9F79F01A3
:1025E000215031096901C61AD70A0E9462124C01B2
:1025F000A60155275C874B87CA0102969C0127706C
:10260000332741E0232B09F440E053E0959587956B
:102610005A95E1F7840F682E712C7A8669862DB75A
:102620003EB7261937090FB6F8943EBF0FBE2DBF2F
:102630004DB75EB74F5F5F4F7A011A016DB77EB736
:10264000661977090FB6F8947EBF0FBE6DBF0DB740
:102650001EB70F5F1F4FA30160E070E0C7010E942B
:10266000FD1B81E0F701808341E081E090E0F5010E
:10267000E40FF11D319720812A32A9F4242F2695E9
:1026800026952695F701E20FF11D242F27703C01B6
:1026900002C0660C771C2A95E2F793013081322B39
:1026A00030834F5FE4CFE12CF12C940133273E8738
:1026B0002D872F5F3F4F3A8B298B31E0380D3B8BB5
:1026C00088248394912C6D847E846E147F040CF492
:1026D000B6C0370147E0642277246114710489F49D
:1026E00089899A898E199F0908971CF42B892E19BC
:1026F00001C028E0A701BE016F5F7F4FC2010E94A9
:102700004812E1E0F0E0EC0FFD1FE60DF71D7080D0
:1027100049855A8560E070E0C8010E94FD1B80E099
:1027200090E0A72DB0E0AC0147705527FC0123E0F5
:10273000F595E7952A95E1F7E20DF31D208130E04C
:10274000042E02C0359527950A94E2F720FF67C052
:10275000F501E80FF91F20812A3229F5282F269547
:1027600026952695F801E20FF11DB40102C0660F0F
:10277000771F4A95E2F72081262B208321E0280F3E
:10278000322F369536953695F801E30FF11D2770F7
:10279000340102C0660C771C2A95E2F79301308160
:1027A000322B30833CC0332727FD30952A173B0757
:1027B000B1F561E0680F262F269526952695F8013C
:1027C000E20FF11D262F2770A40102C0440F551FF0
:1027D0002A95E2F79A013081322B308320E030E0F5
:1027E000462F420FF501E40FF11D40812F5F3F4F4F
:1027F0004A32A9F4462F420F542F569556955695B6
:10280000F801E50FF11D4770340102C0660C771C1A
:102810004A95E2F7A3015081542B5083E1CF0196F2
:102820006B847C84681679060CF07DCF2FEFE21A5A
:10283000F20A922D832D1801092F182F44CF21E081
:102840002C0D822F869586958695F101E80FF11D56
:10285000808190E0277002C0959587952A95E2F7D0
:1028600081706F8478880FB6F8947EBE0FBE6DBEFF
:1028700063960FB6F894DEBF0FBECDBFDF91CF9148
:102880001F910F91FF90EF90DF90CF90BF90AF908E
:102890009F908F907F906F905F904F903F902F9080
:1028A0000895FF920F931F93CF93DF93EC01E09174
:1028B0005C03F0915D03848101E0833009F000E066
:1028C00011E0843009F010E0FF24F394823009F025
:1028D000F12C011105C011110FC0F11019C03BC03E
:1028E00020915803309159032F5F3F4F3093590384
:1028F00020935803112351F0209156033091570330
:102900002F5F3F4F3093570320935603FF20B9F0BA
:1029100020915403309155032F5F3F4F309355035F
:10292000209354038091090183FF09C0809108011D
:1029300083FD9CC0309719F0838583FD97C00023E9
:1029400021F08091090182FD7CC0112321F080914A
:10295000090181FD81C080915E0390915F03892B05
:1029600009F0B5C08091090180FFB1C080910801D4
:1029700080FD0AC0E0915C03F0915D03309709F49B
:10298000A6C0838580FFA3C067EF78E08091060131
:10299000909107010E949218609158037091590319
:1029A0004AE050E080910601909107010E94B11920
:1029B0006DEE78E080910601909107010E949218D7
:1029C00060915603709157034AE050E080910601F0
:1029D000909107010E94B1196FED78E08091060196
:1029E000909107010E9492186091540370915503D1
:1029F0004AE050E080910601909107010E94B119D0
:102A00006DEC78E080910601909107010E94921888
:102A100060915A0370915B034AE050E08091060197
:102A2000909107010E94B11963EC78E08091060152
:102A300090910701DF91CF911F910F91FF900C941E
:102A4000CE188091080182FD11C0309709F47DCF26
:102A5000838582FD0BC079CF8091080181FD06C07E
:102A6000309709F478CF838581FF75CF62E279E0F2
:102A700080910601909107010E949218BE016B5F40
:102A80007F4F80910601909107010E94C018FF209E
:102A900041F068E179E080910601909107010E9480
:102AA000CE18002341F06FE079E08091060190910B
:102AB00007010E94CE18112309F44DCF66E079E09A
:102AC00080910601909107010E94CE1844CFDF91BA
:102AD000CF911F910F91FF900895E0915E03F091C7
:102AE0005F03AEE5B3E0309771F0E817F90729F41A
:102AF000828193818D939C930895DF0112960280C9
:102B0000F381E02DF0CF089527E832E0FC01318316
:102B100020830C946D15CF93DF93EC010E948415F4
:102B2000CE01DF91CF910C94BB19EF92FF920F93DE
:102B30001F93CF93DF938C01FC011482CEE5D3E089
:102B40007C01F5E0EF0EF11C68817981611571055A
:102B500039F06B5F7F4FC7010E9474121816BCF0EA
:102B600088819981F80193838283198308838091F6
:102B70005A0390915B03019690935B0380935A03F1
:102B8000DF91CF911F910F91FF90EF9008950990E1
:102B9000D881C02D2296D8CF0F931F9327E832E01B
:102BA000FC013183208321E832E0368325838B01C9
:102BB000222717FD2095322F306807831087218741
:102BC000328743871F910F910C94951524E0FC01E7
:102BD000248308951F93CF93DF93CEE5D3E011E0D4
:102BE000888199810097C9F190935D0380935C037C
:102BF000DC0114962C911497213039F4ED91FC915D
:102C00000280F381E02D099511C021110FC0DC0174
:102C1000ED91FC910190F081E02D0995E0915C032C
:102C2000F0915D038481811101C01483E0915C0304
:102C3000F0915D038481E881F981813059F08281CE
:102C400093819983888380915C0390915D030E94B6
:102C50005114C6CFEF012296C3CFDF91CF911F91C0
:102C600008950F931F93CF93DF938C01C0915E0360
:102C7000D0915F03209781F08C81823039F4B801C4
:102C8000CE0105960E94CB12811104C00A80DB811F
:102C9000C02DF0CF1C82FACFDF91CF911F910F9101
:102CA0000895FF920F931F93CF93DF938C01C091F0
:102CB0005E03D0915F0362E0F62E209781F08C8155
:102CC000811107C0B801CE0105960E94CB12811177
:102CD00004C00A80DB81C02DF0CFFC82FACFDF91E7
:102CE000CF911F910F91FF900895CF93DF93EC0147
:102CF0004FE10E94CC1583E992E099838883DF91AC
:102D0000CF910895FC01818D228D90E0805C9F4FD2
:102D1000821B91098F7399270895FC01918D828DF3
:102D2000981731F0828DE80FF11D858D90E00895A0
:102D30008FEF9FEF0895FC01918D828D981761F0C0
:102D4000828DDF01A80FB11D5D968C91928D9F5FE2
:102D50009F73928F90E008958FEF9FEF0895FC018D
:102D6000848DDF01A80FB11DA35ABF4F2C91848D14
:102D700090E001968F739927848FA689B7892C9349
:102D8000A089B1898C9180648C93938D848D9813E4
:102D900006C00288F389E02D80818F7D80830895AD
:102DA000CF93DF93EC01888D8823C9F0EA89FB89F2
:102DB000808185FD05C0A889B9898C9186FD0FC0E9
:102DC0000FB607FCF5CF808185FFF2CFA889B989BE
:102DD0008C9185FFEDCFCE010E94AF16E7CFDF913A
:102DE000CF910895CF92DF92FF920F931F93CF93CD
:102DF000DF931F92CDB7DEB76C0181E0D601589604
:102E00008C9358975B969C915B975C968C915C97A2
:102E1000981307C05096ED91FC915197808185FDE4
:102E20002EC0F601038D10E00F5F1F4F0F731127A7
:102E3000F02EF601848DF81211C00FB607FCF9CF01
:102E4000D6015096ED91FC915197808185FFF1CF8D
:102E5000C60169830E94AF166981EBCF838DE80FAD
:102E6000F11DE35AFF4F6083D6015B960C935B978D
:102E70005296ED91FC915397808180620CC0D601EF
:102E80005696ED91FC91579760835096ED91FC9189
:102E9000519780818064808381E090E00F90DF9182
:102EA000CF911F910F91FF90DF90CF900895BF9227
:102EB000CF92DF92EF92FF92CF93DF93EC016A0102
:102EC0007B01B22EE889F98982E08083411581EE89
:102ED000580761057105A1F060E079E08DE390E0AD
:102EE000A70196010E948E1A21503109410951090A
:102EF0005695479537952795211580E1380798F025
:102F0000E889F989108260E874E88EE190E0A70111
:102F100096010E948E1A2150310941095109569596
:102F2000479537952795EC85FD853083EE85FF85A0
:102F30002083188EEC89FD89B082EA89FB89808123
:102F400080618083EA89FB89808188608083EA8947
:102F5000FB89808180688083EA89FB8980818F7DFD
:102F60008083DF91CF91FF90EF90DF90CF90BF9063
:102F700008951F920F920FB60F9211242F938F93E3
:102F80009F93EF93FF93E0917003F0917103808121
:102F9000E0917603F091770382FD12C090818091D9
:102FA00079038F5F8F7320917A03821751F0E0913C
:102FB0007903F0E0E05AFC4F958F8093790301C0CC
:102FC0008081FF91EF919F918F912F910F900FBE74
:102FD0000F901F9018951F920F920FB60F92112409
:102FE0002F933F934F935F936F937F938F939F9311
:102FF000AF93BF93EF93FF9380E693E00E94AF16E9
:10300000FF91EF91BF91AF919F918F917F916F91C0
:103010005F914F913F912F910F900FBE0F901F9096
:103020001895109263031092620388EE93E0A0E07B
:10303000B0E08093640390936503A0936603B0931C
:10304000670381EA92E0909361038093600385ECCB
:1030500090E090936D0380936C0384EC90E09093E8
:103060006F0380936E0380EC90E0909371038093E4
:10307000700381EC90E0909373038093720382EC71
:1030800090E0909375038093740386EC90E09093A6
:103090007703809376031092790310927A0310924B
:1030A0007B0310927C030895CF92DF92EF92FF9200
:1030B0000F931F93CF93DF936C017A01EB01E60E20
:1030C000F71E00E010E0CE15DF0561F06991D60132
:1030D000ED91FC910190F081E02DC6010995080F5A
:1030E000191FF1CFC801DF91CF911F910F91FF9070
:1030F000EF90DF90CF9008956115710581F0DB01AD
:103100000D900020E9F7AD0141505109461B570BC6
:10311000DC01ED91FC910280F381E02D099480E0C7
:1031200090E00895EF92FF920F931F93CF93DF9358
:103130008C01FB01C0E0D0E064917F018FEFE81AC1
:10314000F80A662361F0D801ED91FC910190F081BD
:10315000E02DC8010995C80FD91FF701EDCFCE01A9
:10316000DF91CF911F910F91FF90EF9008950C94F4
:103170007C18DC01ED91FC910190F081E02D099427
:10318000DB01ED91FC9111970190F081E02DBC01E4
:10319000CD0109946DEA72E00C947C180F931F9393
:1031A000CF93DF93EC010E9492188C01CE010E9414
:1031B000CA18800F911FDF91CF911F910F91089531
:1031C0000F931F93CF93DF93EC010E947C188C0127
:1031D000CE010E94CA18800F911FDF91CF911F91DD
:1031E0000F9108958F929F92AF92BF92CF92DF92EC
:1031F000EF92FF920F931F93CF93DF93CDB7DEB77C
:10320000A1970FB6F894DEBF0FBECDBF7C01C42ED0
:10321000E52FCB01D22E19A221E02D1510F02AE0C6
:10322000D22E8E010F5D1F4F8D2C912CA12CB12C15
:103230006C2D7E2FA50194010E948E1A8C2DD29E9A
:1032400080191124015011098A3014F4805D01C0E5
:10325000895CF8018083211531054105510521F074
:10326000C22EE32FCA01E4CFB801C7010E947C1827
:10327000A1960FB6F894DEBF0FBECDBFDF91CF9100
:103280001F910F91FF90EF90DF90CF90BF90AF9084
:103290009F908F900895CF92DF92EF92FF920F93BD
:1032A0001F93CF93DF93EC016A017B012115310558
:1032B00079F4E881F9810190F081E02D642FDF91AC
:1032C000CF911F910F91FF90EF90DF90CF900994D5
:1032D0002A303105E9F477FF1AC06DE20E94B9186F
:1032E0008C0144275527BA014C195D096E097F09E5
:1032F0002AE0CE010E94F218800F911FDF91CF913A
:103300001F910F91FF90EF90DF90CF9008952AE0EA
:10331000B701A601CE01DF91CF911F910F91FF90D0
:10332000EF90DF90CF900C94F2189A01AB016627D2
:1033300057FD6095762F0C944B192115310541F4FA
:10334000DC01ED91FC910190F081E02D642F099456
:103350000C94F2189A01462F50E060E070E00C9453
:103360009D199A01AB0160E070E00C949D190E94D8
:10337000DD1B0C94B61A0C944E1B1F920F920FB6C5
:103380000F9211242F933F938F939F93AF93BF93EB
:103390008091FE039091FF03A0910004B09101047D
:1033A0003091FD0323E0230F2D3720F40196A11D5A
:1033B000B11D05C026E8230F0296A11DB11D209363
:1033C000FD038093FE039093FF03A0930004B0934A
:1033D00001048091020490910304A0910404B0912F
:1033E00005040196A11DB11D80930204909303046E
:1033F000A0930404B0930504BF91AF919F918F9166
:103400003F912F910F900FBE0F901F9018953FB7CF
:10341000F8948091020490910304A0910404B09167
:10342000050426B5A89B05C02F3F19F00196A11DE4
:10343000B11D3FBF6627782F892F9A2F620F711D0C
:10344000811D911D42E0660F771F881F991F4A95C5
:10345000D1F70895CF92DF92EF92FF92CF93DF934F
:103460006B017C010E94071AEB01C114D104E10435
:10347000F10489F00E948D1A0E94071A6C1B7D0BC3
:10348000683E734090F381E0C81AD108E108F10862
:10349000C851DC4FEACFDF91CF91FF90EF90DF90E2
:1034A000CF900895789484B5826084BD84B581609E
:1034B00084BD85B5826085BD85B5816085BDEEE63C
:1034C000F0E0808181608083E1E8F0E0108280811B
:1034D00082608083808181608083E0E8F0E0808189
:1034E00081608083E1EBF0E0808184608083E0EBA9
:1034F000F0E0808181608083EAE7F0E08081846091
:1035000080838081826080838081816080838081EC
:10351000806880831092C10008950895A1E21A2E58
:10352000AA1BBB1BFD010DC0AA1FBB1FEE1FFF1F67
:10353000A217B307E407F50720F0A21BB30BE40BB7
:10354000F50B661F771F881F991F1A9469F76095FE
:103550007095809590959B01AC01BD01CF010895B8
:10356000EE0FFF1F0590F491E02D0994CF93DF93A8
:103570008230910510F482E090E0E0910804F0912F
:10358000090420E030E0A0E0B0E0309739F140815C
:10359000518148175907B8F04817590771F48281CB
:1035A0009381109729F013969C938E9312972CC0B9
:1035B000909309048093080427C02115310531F048
:1035C0004217530718F0A901DB0101C0EF019A016E
:1035D000BD01DF010280F381E02DD7CF2115310538
:1035E000F9F0281B390B2430310580F48A819B8146
:1035F0006115710521F0FB019383828304C09093D0
:10360000090480930804FE01329644C0FE01E20FD3
:10361000F31F8193919322503109398328833AC053
:103620002091060430910704232B41F420910201DC
:103630003091030130930704209306042091000188
:10364000309101012115310541F42DB73EB740916C
:10365000040150910501241B350BE0910604F09103
:103660000704E217F307A0F42E1B3F0B28173907B6
:1036700078F0AC014E5F5F4F2417350748F04E0FCE
:103680005F1F50930704409306048193919302C0F7
:10369000E0E0F0E0CF01DF91CF910895CF93DF9389
:1036A000009709F487C0FC01329713821282C091FF
:1036B0000804D0910904209781F420813181280FDA
:1036C000391F80910604909107048217930779F5BA
:1036D000F0930704E09306046DC0DE0120E030E0C3
:1036E000AE17BF0750F412964D915C9113979D0150
:1036F0004115510509F1DA01F3CFB383A28340816B
:103700005181840F951F8A179B0771F48D919C91AD
:103710001197840F951F02969183808312968D9145
:103720009C911397938382832115310529F4F0939B
:103730000904E09308043EC0D9011396FC93EE936C
:1037400012974D915D91A40FB51FEA17FB0779F40D
:1037500080819181840F951F0296D90111969C93C7
:103760008E938281938113969C938E931297E0E0BF
:10377000F0E08A819B81009719F0FE01EC01F9CFFE
:10378000CE01029628813981820F931F2091060471
:10379000309107042817390769F4309729F41092FB
:1037A00009041092080402C013821282D093070405
:1037B000C0930604DF91CF91089581E090E0F894E2
:1037C0000C94041CFB01DC0102C005900D924150D9
:1037D0005040D8F70895FC0105900020E9F7809546
:1037E00090958E0F9F1F0895FB01DC0102C0019090
:1037F0000D9241505040D8F70895DC0101C06D93FF
:1038000041505040E0F7089519E0CCE2D9E004C0FF
:10381000FE010E94B21A2296CE32D107C9F7F8945F
:02382000FFCFD8
:1038220000000A0480006003013F5465737420584D
:103832005461626C652041726475696E6F20436CDD
:1038420061737300436C65616E00496E73657274D7
:1038520000496E736572744D6178696D756D0053C0
:10386200656C656374005570646174650044656CD1
:103872006574650044656C657465416C6C00436FEA
:10388200756E74657200546F70004E6578740049ED
:103892006E697453746F7261676500536176655324
:1038A200746F72616765004C6F616453746F72610B
:1038B200676500476574546F704164647265737321
:1038C20053746F72616765004E6578744672656500
:1038D2004164647265737353746F72616765000A41
:1038E2002A2A2A204572726F723A2063616E6E6FC5
:1038F2007420616C6C6F63617465207265717569A7
:10390200726564206D656D6F7279202A2A2A002EF5
:1039120000000000002812291223058E054308002A
:10392200000000281229121C058405A809000000C5
:10393200002812291215057A05460A0000000028FF
:103942001229120E057005B60A000000002812297D
:1039520012070566053D0B0000000028122912001F
:10396200055C05B00C0000000028122912F904526F
:1039720005850F0000000028122912F20448053DB7
:103982000C0000000028122912EB043E05CB0D00AA
:1039920000000028122912E40434051B1100000063
:1039A200003A12000000002812B71984158B150086
:1039B20000000028122912DD042A05B719000000B0
:1039C20000F216541882169B168D16D0160D0A0098
:0C39D2006E616E00696E66006F76660024
:00000001FF
